{
  "address": "0x4828256e2aD7796528A5Ee0A6378ADa8B159D794",
  "abi": [
    {
      "inputs": [],
      "stateMutability": "nonpayable",
      "type": "constructor"
    },
    {
      "anonymous": false,
      "inputs": [
        {
          "indexed": true,
          "internalType": "address",
          "name": "previousOwner",
          "type": "address"
        },
        {
          "indexed": true,
          "internalType": "address",
          "name": "newOwner",
          "type": "address"
        }
      ],
      "name": "OwnershipTransferred",
      "type": "event"
    },
    {
      "inputs": [
        {
          "internalType": "string",
          "name": "",
          "type": "string"
        },
        {
          "internalType": "string",
          "name": "",
          "type": "string"
        }
      ],
      "name": "answers",
      "outputs": [
        {
          "internalType": "bytes",
          "name": "",
          "type": "bytes"
        }
      ],
      "stateMutability": "view",
      "type": "function"
    },
    {
      "inputs": [
        {
          "internalType": "string",
          "name": "pollCid",
          "type": "string"
        },
        {
          "internalType": "string[]",
          "name": "options",
          "type": "string[]"
        }
      ],
      "name": "createPoll",
      "outputs": [],
      "stateMutability": "nonpayable",
      "type": "function"
    },
    {
      "inputs": [
        {
          "internalType": "string",
          "name": "fid",
          "type": "string"
        },
        {
          "internalType": "string",
          "name": "pollCid",
          "type": "string"
        }
      ],
      "name": "getResult",
      "outputs": [
        {
          "internalType": "uint256",
          "name": "",
          "type": "uint256"
        },
        {
          "internalType": "uint256",
          "name": "",
          "type": "uint256"
        }
      ],
      "stateMutability": "view",
      "type": "function"
    },
    {
      "inputs": [
        {
          "internalType": "string",
          "name": "",
          "type": "string"
        }
      ],
      "name": "isPollCreated",
      "outputs": [
        {
          "internalType": "bool",
          "name": "",
          "type": "bool"
        }
      ],
      "stateMutability": "view",
      "type": "function"
    },
    {
      "inputs": [
        {
          "internalType": "string",
          "name": "",
          "type": "string"
        },
        {
          "internalType": "string",
          "name": "",
          "type": "string"
        }
      ],
      "name": "isPollSubmitted",
      "outputs": [
        {
          "internalType": "bool",
          "name": "",
          "type": "bool"
        }
      ],
      "stateMutability": "view",
      "type": "function"
    },
    {
      "inputs": [],
      "name": "owner",
      "outputs": [
        {
          "internalType": "address",
          "name": "",
          "type": "address"
        }
      ],
      "stateMutability": "view",
      "type": "function"
    },
    {
      "inputs": [
        {
          "internalType": "string",
          "name": "",
          "type": "string"
        },
        {
          "internalType": "string",
          "name": "",
          "type": "string"
        }
      ],
      "name": "pollResults",
      "outputs": [
        {
          "internalType": "uint256",
          "name": "",
          "type": "uint256"
        }
      ],
      "stateMutability": "view",
      "type": "function"
    },
    {
      "inputs": [
        {
          "internalType": "string",
          "name": "",
          "type": "string"
        }
      ],
      "name": "pollTotalQuestions",
      "outputs": [
        {
          "internalType": "uint256",
          "name": "",
          "type": "uint256"
        }
      ],
      "stateMutability": "view",
      "type": "function"
    },
    {
      "inputs": [
        {
          "internalType": "string",
          "name": "",
          "type": "string"
        },
        {
          "internalType": "uint256",
          "name": "",
          "type": "uint256"
        }
      ],
      "name": "polls",
      "outputs": [
        {
          "internalType": "string",
          "name": "",
          "type": "string"
        }
      ],
      "stateMutability": "view",
      "type": "function"
    },
    {
      "inputs": [],
      "name": "renounceOwnership",
      "outputs": [],
      "stateMutability": "nonpayable",
      "type": "function"
    },
    {
      "inputs": [
        {
          "internalType": "string",
          "name": "fid",
          "type": "string"
        },
        {
          "internalType": "string",
          "name": "pollCid",
          "type": "string"
        },
        {
          "internalType": "string[]",
          "name": "option",
          "type": "string[]"
        }
      ],
      "name": "submitAnswer",
      "outputs": [],
      "stateMutability": "nonpayable",
      "type": "function"
    },
    {
      "inputs": [],
      "name": "totalPolls",
      "outputs": [
        {
          "internalType": "uint256",
          "name": "",
          "type": "uint256"
        }
      ],
      "stateMutability": "view",
      "type": "function"
    },
    {
      "inputs": [
        {
          "internalType": "address",
          "name": "newOwner",
          "type": "address"
        }
      ],
      "name": "transferOwnership",
      "outputs": [],
      "stateMutability": "nonpayable",
      "type": "function"
    }
  ],
  "transactionHash": "0xf3404938b9261de2a3e7b6cba9f3b1ce83a3ce8cc7ab6a6aa853267d8dc81454",
  "args": [],
  "numDeployments": 1,
  "solcInputHash": "539d454935e7e605e8e9159ffb74d495",
  "bytecode": "0x6080604052600060015534801561001557600080fd5b5061001f33610024565b610074565b600080546001600160a01b038381166001600160a01b0319831681178455604051919092169283917f8be0079c531659141344cd1fd0a4f28419497f9722a3daafe3b4186f6b6457e09190a35050565b6110c5806100836000396000f3fe608060405234801561001057600080fd5b50600436106100cf5760003560e01c80638527334a1161008c578063a2eeeb2f11610066578063a2eeeb2f1461022e578063ad7a225c14610237578063d1c8f4191461024a578063f2fde38b1461029257600080fd5b80638527334a146101b25780638da5cb5b146101eb5780638fb840cf1461020657600080fd5b80630b764457146100d45780630bf14bbf146101175780631b81ac59146101375780634b2fbbbc1461014c578063715018a6146101975780637e3d71c31461019f575b600080fd5b6101026100e2366004610ab7565b805160208183018101805160048252928201919093012091525460ff1681565b60405190151581526020015b60405180910390f35b61012a610125366004610af4565b6102a5565b60405161010e9190610b9e565b61014a610145366004610c46565b610367565b005b61010261015a366004610af4565b8151602081840181018051600682529282019482019490942091909352815180830184018051928152908401929093019190912091525460ff1681565b61014a61064d565b61014a6101ad366004610ce0565b610661565b6101dd6101c0366004610ab7565b805160208183018101805160078252928201919093012091525481565b60405190815260200161010e565b6000546040516001600160a01b03909116815260200161010e565b610219610214366004610d4c565b6107b6565b6040805192835260208301919091520161010e565b6101dd60015481565b61012a610245366004610dac565b6108aa565b6101dd610258366004610af4565b8151602081840181018051600582529282019482019490942091909352815180830184018051928152908401929093019190912091525481565b61014a6102a0366004610df1565b6108f1565b81516020818401810180516002825292820194820194909420919093528151808301840180519281529084019290930191909120915280546102e690610e1a565b80601f016020809104026020016040519081016040528092919081815260200182805461031290610e1a565b801561035f5780601f106103345761010080835404028352916020019161035f565b820191906000526020600020905b81548152906001019060200180831161034257829003601f168201915b505050505081565b61036f61096a565b60048484604051610381929190610e54565b9081526040519081900360200190205460ff166103d85760405162461bcd60e51b815260206004820152601060248201526f141bdb1b081b9bdd0818dc99585d195960821b60448201526064015b60405180910390fd5b600686866040516103ea929190610e54565b90815260200160405180910390208484604051610408929190610e54565b9081526040519081900360200190205460ff16156104615760405162461bcd60e51b8152602060048201526016602482015275141bdb1b08185b1c9958591e481cdd589b5a5d1d195960521b60448201526064016103cf565b60038484604051610473929190610e54565b9081526040519081900360200190205481146104d15760405162461bcd60e51b815260206004820152601960248201527f496e76616c6964206e756d626572206f66206f7074696f6e730000000000000060448201526064016103cf565b6000805b828110156105ae57600386866040516104ef929190610e54565b9081526020016040518091039020818154811061050e5761050e610e64565b906000526020600020016040516020016105289190610e7a565b6040516020818303038152906040528051906020012084848381811061055057610550610e64565b90506020028101906105629190610ef0565b604051602001610573929190610e54565b604051602081830303815290604052805190602001200361059c57610599600183610f4d565b91505b806105a681610f66565b9150506104d5565b5080600588886040516105c2929190610e54565b908152602001604051809103902086866040516105e0929190610e54565b908152602001604051809103902081905550600160068888604051610606929190610e54565b90815260200160405180910390208686604051610624929190610e54565b908152604051908190036020019020805491151560ff1990921691909117905550505050505050565b61065561096a565b61065f60006109c4565b565b61066961096a565b6004848460405161067b929190610e54565b9081526040519081900360200190205460ff16156106d25760405162461bcd60e51b8152602060048201526014602482015273141bdb1b08185b1c9958591e4818dc99585d195960621b60448201526064016103cf565b60005b8181101561075457600385856040516106ef929190610e54565b908152602001604051809103902083838381811061070f5761070f610e64565b90506020028101906107219190610ef0565b825460018101845560009384526020909320909201916107419183610fce565b508061074c81610f66565b9150506106d5565b50604051819060079061076a9087908790610e54565b908152602001604051809103902081905550600160048585604051610790929190610e54565b908152604051908190036020019020805491151560ff1990921691909117905550505050565b600080600686866040516107cb929190610e54565b908152602001604051809103902084846040516107e9929190610e54565b9081526040519081900360200190205460ff1661083d5760405162461bcd60e51b8152602060048201526012602482015271141bdb1b081b9bdd081cdd589b5a5d1d195960721b60448201526064016103cf565b6005868660405161084f929190610e54565b9081526020016040518091039020848460405161086d929190610e54565b9081526020016040518091039020546007858560405161088e929190610e54565b9081526020016040518091039020549150915094509492505050565b815160208184018101805160038252928201918501919091209190528054829081106108d557600080fd5b906000526020600020016000915091505080546102e690610e1a565b6108f961096a565b6001600160a01b03811661095e5760405162461bcd60e51b815260206004820152602660248201527f4f776e61626c653a206e6577206f776e657220697320746865207a65726f206160448201526564647265737360d01b60648201526084016103cf565b610967816109c4565b50565b6000546001600160a01b0316331461065f5760405162461bcd60e51b815260206004820181905260248201527f4f776e61626c653a2063616c6c6572206973206e6f7420746865206f776e657260448201526064016103cf565b600080546001600160a01b038381166001600160a01b0319831681178455604051919092169283917f8be0079c531659141344cd1fd0a4f28419497f9722a3daafe3b4186f6b6457e09190a35050565b634e487b7160e01b600052604160045260246000fd5b600082601f830112610a3b57600080fd5b813567ffffffffffffffff80821115610a5657610a56610a14565b604051601f8301601f19908116603f01168101908282118183101715610a7e57610a7e610a14565b81604052838152866020858801011115610a9757600080fd5b836020870160208301376000602085830101528094505050505092915050565b600060208284031215610ac957600080fd5b813567ffffffffffffffff811115610ae057600080fd5b610aec84828501610a2a565b949350505050565b60008060408385031215610b0757600080fd5b823567ffffffffffffffff80821115610b1f57600080fd5b610b2b86838701610a2a565b93506020850135915080821115610b4157600080fd5b50610b4e85828601610a2a565b9150509250929050565b6000815180845260005b81811015610b7e57602081850181015186830182015201610b62565b506000602082860101526020601f19601f83011685010191505092915050565b602081526000610bb16020830184610b58565b9392505050565b60008083601f840112610bca57600080fd5b50813567ffffffffffffffff811115610be257600080fd5b602083019150836020828501011115610bfa57600080fd5b9250929050565b60008083601f840112610c1357600080fd5b50813567ffffffffffffffff811115610c2b57600080fd5b6020830191508360208260051b8501011115610bfa57600080fd5b60008060008060008060608789031215610c5f57600080fd5b863567ffffffffffffffff80821115610c7757600080fd5b610c838a838b01610bb8565b90985096506020890135915080821115610c9c57600080fd5b610ca88a838b01610bb8565b90965094506040890135915080821115610cc157600080fd5b50610cce89828a01610c01565b979a9699509497509295939492505050565b60008060008060408587031215610cf657600080fd5b843567ffffffffffffffff80821115610d0e57600080fd5b610d1a88838901610bb8565b90965094506020870135915080821115610d3357600080fd5b50610d4087828801610c01565b95989497509550505050565b60008060008060408587031215610d6257600080fd5b843567ffffffffffffffff80821115610d7a57600080fd5b610d8688838901610bb8565b90965094506020870135915080821115610d9f57600080fd5b50610d4087828801610bb8565b60008060408385031215610dbf57600080fd5b823567ffffffffffffffff811115610dd657600080fd5b610de285828601610a2a565b95602094909401359450505050565b600060208284031215610e0357600080fd5b81356001600160a01b0381168114610bb157600080fd5b600181811c90821680610e2e57607f821691505b602082108103610e4e57634e487b7160e01b600052602260045260246000fd5b50919050565b8183823760009101908152919050565b634e487b7160e01b600052603260045260246000fd5b6000808354610e8881610e1a565b60018281168015610ea05760018114610eb557610ee4565b60ff1984168752821515830287019450610ee4565b8760005260208060002060005b85811015610edb5781548a820152908401908201610ec2565b50505082870194505b50929695505050505050565b6000808335601e19843603018112610f0757600080fd5b83018035915067ffffffffffffffff821115610f2257600080fd5b602001915036819003821315610bfa57600080fd5b634e487b7160e01b600052601160045260246000fd5b80820180821115610f6057610f60610f37565b92915050565b600060018201610f7857610f78610f37565b5060010190565b601f821115610fc957600081815260208120601f850160051c81016020861015610fa65750805b601f850160051c820191505b81811015610fc557828155600101610fb2565b5050505b505050565b67ffffffffffffffff831115610fe657610fe6610a14565b610ffa83610ff48354610e1a565b83610f7f565b6000601f84116001811461102e57600085156110165750838201355b600019600387901b1c1916600186901b178355611088565b600083815260209020601f19861690835b8281101561105f578685013582556020948501946001909201910161103f565b508682101561107c5760001960f88860031b161c19848701351681555b505060018560011b0183555b505050505056fea26469706673582212208b21c14a438760032fe58c30bf24d9177c2689cf1aa9eb9582e80f975112c29564736f6c63430008110033",
  "devdoc": {
    "kind": "dev",
    "methods": {
      "owner()": {
        "details": "Returns the address of the current owner."
      },
      "renounceOwnership()": {
        "details": "Leaves the contract without owner. It will not be possible to call `onlyOwner` functions. Can only be called by the current owner. NOTE: Renouncing ownership will leave the contract without an owner, thereby disabling any functionality that is only available to the owner."
      },
      "transferOwnership(address)": {
        "details": "Transfers ownership of the contract to a new account (`newOwner`). Can only be called by the current owner."
      }
    },
    "version": 1
  },
  "userdoc": {
    "kind": "user",
    "methods": {},
    "version": 1
  },
  "storageLayout": {
    "storage": [
      {
        "astId": 7,
        "contract": "contracts/PollResults.sol:PollResults",
        "label": "_owner",
        "offset": 0,
        "slot": "0",
        "type": "t_address"
      },
      {
        "astId": 143,
        "contract": "contracts/PollResults.sol:PollResults",
        "label": "totalPolls",
        "offset": 0,
        "slot": "1",
        "type": "t_uint256"
      },
      {
        "astId": 149,
        "contract": "contracts/PollResults.sol:PollResults",
        "label": "answers",
        "offset": 0,
        "slot": "2",
        "type": "t_mapping(t_string_memory_ptr,t_mapping(t_string_memory_ptr,t_bytes_storage))"
      },
      {
        "astId": 154,
        "contract": "contracts/PollResults.sol:PollResults",
        "label": "polls",
        "offset": 0,
        "slot": "3",
        "type": "t_mapping(t_string_memory_ptr,t_array(t_string_storage)dyn_storage)"
      },
      {
        "astId": 158,
        "contract": "contracts/PollResults.sol:PollResults",
        "label": "isPollCreated",
        "offset": 0,
        "slot": "4",
        "type": "t_mapping(t_string_memory_ptr,t_bool)"
      },
      {
        "astId": 164,
        "contract": "contracts/PollResults.sol:PollResults",
        "label": "pollResults",
        "offset": 0,
        "slot": "5",
        "type": "t_mapping(t_string_memory_ptr,t_mapping(t_string_memory_ptr,t_uint256))"
      },
      {
        "astId": 170,
        "contract": "contracts/PollResults.sol:PollResults",
        "label": "isPollSubmitted",
        "offset": 0,
        "slot": "6",
        "type": "t_mapping(t_string_memory_ptr,t_mapping(t_string_memory_ptr,t_bool))"
      },
      {
        "astId": 174,
        "contract": "contracts/PollResults.sol:PollResults",
        "label": "pollTotalQuestions",
        "offset": 0,
        "slot": "7",
        "type": "t_mapping(t_string_memory_ptr,t_uint256)"
      }
    ],
    "types": {
      "t_address": {
        "encoding": "inplace",
        "label": "address",
        "numberOfBytes": "20"
      },
      "t_array(t_string_storage)dyn_storage": {
        "base": "t_string_storage",
        "encoding": "dynamic_array",
        "label": "string[]",
        "numberOfBytes": "32"
      },
      "t_bool": {
        "encoding": "inplace",
        "label": "bool",
        "numberOfBytes": "1"
      },
      "t_bytes_storage": {
        "encoding": "bytes",
        "label": "bytes",
        "numberOfBytes": "32"
      },
      "t_mapping(t_string_memory_ptr,t_array(t_string_storage)dyn_storage)": {
        "encoding": "mapping",
        "key": "t_string_memory_ptr",
        "label": "mapping(string => string[])",
        "numberOfBytes": "32",
        "value": "t_array(t_string_storage)dyn_storage"
      },
      "t_mapping(t_string_memory_ptr,t_bool)": {
        "encoding": "mapping",
        "key": "t_string_memory_ptr",
        "label": "mapping(string => bool)",
        "numberOfBytes": "32",
        "value": "t_bool"
      },
      "t_mapping(t_string_memory_ptr,t_bytes_storage)": {
        "encoding": "mapping",
        "key": "t_string_memory_ptr",
        "label": "mapping(string => bytes)",
        "numberOfBytes": "32",
        "value": "t_bytes_storage"
      },
      "t_mapping(t_string_memory_ptr,t_mapping(t_string_memory_ptr,t_bool))": {
        "encoding": "mapping",
        "key": "t_string_memory_ptr",
        "label": "mapping(string => mapping(string => bool))",
        "numberOfBytes": "32",
        "value": "t_mapping(t_string_memory_ptr,t_bool)"
      },
      "t_mapping(t_string_memory_ptr,t_mapping(t_string_memory_ptr,t_bytes_storage))": {
        "encoding": "mapping",
        "key": "t_string_memory_ptr",
        "label": "mapping(string => mapping(string => bytes))",
        "numberOfBytes": "32",
        "value": "t_mapping(t_string_memory_ptr,t_bytes_storage)"
      },
      "t_mapping(t_string_memory_ptr,t_mapping(t_string_memory_ptr,t_uint256))": {
        "encoding": "mapping",
        "key": "t_string_memory_ptr",
        "label": "mapping(string => mapping(string => uint256))",
        "numberOfBytes": "32",
        "value": "t_mapping(t_string_memory_ptr,t_uint256)"
      },
      "t_mapping(t_string_memory_ptr,t_uint256)": {
        "encoding": "mapping",
        "key": "t_string_memory_ptr",
        "label": "mapping(string => uint256)",
        "numberOfBytes": "32",
        "value": "t_uint256"
      },
      "t_string_memory_ptr": {
        "encoding": "bytes",
        "label": "string",
        "numberOfBytes": "32"
      },
      "t_string_storage": {
        "encoding": "bytes",
        "label": "string",
        "numberOfBytes": "32"
      },
      "t_uint256": {
        "encoding": "inplace",
        "label": "uint256",
        "numberOfBytes": "32"
      }
    }
  }
}